{
  "contractName": "SimpleStorage",
  "abi": [
    {
      "inputs": [],
      "payable": false,
      "stateMutability": "nonpayable",
      "type": "constructor"
    },
    {
      "constant": false,
      "inputs": [
        {
          "internalType": "string",
          "name": "_name",
          "type": "string"
        },
        {
          "internalType": "uint256",
          "name": "_age",
          "type": "uint256"
        }
      ],
      "name": "set",
      "outputs": [],
      "payable": false,
      "stateMutability": "nonpayable",
      "type": "function"
    },
    {
      "constant": true,
      "inputs": [],
      "name": "get",
      "outputs": [
        {
          "internalType": "string",
          "name": "",
          "type": "string"
        },
        {
          "internalType": "uint256",
          "name": "",
          "type": "uint256"
        }
      ],
      "payable": false,
      "stateMutability": "view",
      "type": "function"
    }
  ],
  "bytecode": "0x608060405234801561001057600080fd5b506040518060200160405280600081525060009080519060200190610036929190610044565b5060006001819055506100e9565b828054600181600116156101000203166002900490600052602060002090601f016020900481019282601f1061008557805160ff19168380011785556100b3565b828001600101855582156100b3579182015b828111156100b2578251825591602001919060010190610097565b5b5090506100c091906100c4565b5090565b6100e691905b808211156100e25760008160009055506001016100ca565b5090565b90565b610332806100f86000396000f3fe608060405234801561001057600080fd5b50600436106100365760003560e01c80636d4ce63c1461003b5780638a42ebe9146100c5575b600080fd5b61004361018a565b6040518080602001838152602001828103825284818151815260200191508051906020019080838360005b8381101561008957808201518184015260208101905061006e565b50505050905090810190601f1680156100b65780820380516001836020036101000a031916815260200191505b50935050505060405180910390f35b610188600480360360408110156100db57600080fd5b81019080803590602001906401000000008111156100f857600080fd5b82018360208201111561010a57600080fd5b8035906020019184600183028401116401000000008311171561012c57600080fd5b91908080601f016020809104026020016040519081016040528093929190818152602001838380828437600081840152601f19601f82011690508083019250505050505050919291929080359060200190929190505050610236565b005b6060600080600154818054600181600116156101000203166002900480601f0160208091040260200160405190810160405280929190818152602001828054600181600116156101000203166002900480156102275780601f106101fc57610100808354040283529160200191610227565b820191906000526020600020905b81548152906001019060200180831161020a57829003601f168201915b50505050509150915091509091565b816000908051906020019061024c929190610258565b50806001819055505050565b828054600181600116156101000203166002900490600052602060002090601f016020900481019282601f1061029957805160ff19168380011785556102c7565b828001600101855582156102c7579182015b828111156102c65782518255916020019190600101906102ab565b5b5090506102d491906102d8565b5090565b6102fa91905b808211156102f65760008160009055506001016102de565b5090565b9056fea265627a7a723158204192a5ece4025808c2e5e0803495d5d15da0aecc77bc9a593f7489278103d4b864736f6c63430005100032",
  "source": "pragma solidity >= 0.4.0 < 0.7.0;\r\n\r\ncontract SimpleStorage{\r\n\r\n    string name;\r\n    uint age;\r\n\r\n    // Constructor to initialize name and age\r\n    constructor() public {\r\n        name = \"\";\r\n        age = 0;\r\n    }\r\n\r\n    // A function to store value in name and age. _name and _age is passed as parameter which is assigned to name and age respectively\r\n    function set(string memory _name, uint _age) public {\r\n        name = _name;\r\n        age = _age;\r\n    }\r\n\r\n    // Function to return name and age\r\n     function get() public view returns(string memory, uint){\r\n        return (name,age);\r\n    }\r\n}",
  "sourcePath": "D:\\Blockchain\\tutorial\\SimpleStorage\\contracts\\SimpleStorage.sol",
  "compiler": {
    "name": "solc",
    "version": "0.5.16+commit.9c3226ce.Emscripten.clang"
  },
  "schemaVersion": "3.0.23",
  "updatedAt": "2020-03-30T12:12:48.128Z",
  "networkType": "ethereum",
  "devdoc": {
    "methods": {}
  },
  "userdoc": {
    "methods": {}
  }
}